:060000000A128A110C280F
:10000800FE00030EF2000A08F3000A128A115129B1
:100018000A128A110F2883135630FD000130FE00A2
:10002800FF30FF00423084000A128A1117220A1298
:100038008A1183010A128A118C29283084004230DF
:1000480083120313A4000408A5001430A600240892
:10005800840083130008A700A40A25088400270841
:100068008000A50AA60B2B280A30F4000030F50002
:100078001E08A400A5012408F6002508F7000A12A6
:100088008A11F6200A128A11750883120313BD001B
:100098007408BC000A30F4000030F5001E08A40003
:1000A800A5012408F6002508F7000A128A118D20F8
:1000B8000A128A11750883120313BF007408BE0060
:1000C8003C08A4002407283E840083130008870006
:1000D8000914C73083120313A4007228A40B7128D3
:1000E80075288312031309103E08A4002407283E2C
:1000F80084008313000887008914C7308312031310
:10010800A4008628A40B8528892883120313891044
:10011800080083120313A101F51F932894289B2834
:10012800F409F509F40A0319F50AA101A10AF71F50
:100138009E289F28A828F609F709F60A0319F70A3E
:100148000130F8007808A106A201A301740875041B
:100158000319AF28B028E728A001A00ABE2801305B
:100168000310F40DF50DFF3E031DB4280130F8000F
:100178007808A007F51FC128C228B328013003104A
:10018800A20DA30DFF3E031DC32875087702031DAA
:10019800CF2874087602031CD228D328DA287408DA
:1001A800F6027508031CF703F70222140130031046
:1001B800F50CF40CFF3E031DDB280130A002031DE3
:1001C800E628E728C22821080319EB28EC28F1289B
:1001D800A209A309A20A0319A30A2308F500220801
:1001E800F400080083120313A101F71FFC28FD285F
:1001F8000429F609F709F60A0319F70AA101A10A61
:10020800F51F072908290D29F409F509F40A031926
:10021800F50A740875040319122913294229A00143
:10022800A00A212901300310F40DF50DFF3E031D2E
:1002380017290130F8007808A007F51F2429252977
:10024800162975087702031D2B2974087602031CEA
:100258002E292F2935297408F6027508031CF7037F
:10026800F70201300310F50CF40CFF3E031D36298C
:100278000130A002031D412942292529210803191B
:10028800462947294C29F609F709F60A0319F70AF6
:100298007708F5007608F40008000B1C5429552946
:1002A80085298312031306185A295B296F291A30E6
:1002B800F100F830F000F00B5F29F10B5F29000026
:1002C80083120313061869296A2984290130F0006A
:1002D80070088807842986187229732984291A3096
:1002E800F100F830F000F00B7729F10B77290000C6
:1002F80083120313861881298229842901308802F0
:100308000B1073088A00720E8300FE0E7E0E090021
:100318000A128A11BC210A128A110A128A11E421CE
:100328000A128A11831203139F149F189C299D296E
:1003380099290C130A128A1121200A128A110D30E8
:1003480083120313C100FB30C000C00BA929C10BE5
:10035800A929831203131E0808020318B429B52912
:10036800B72909159629091196290A128A110C2804
:100378008316031788018901033083160313860047
:10038800870188018901811315149514033096009B
:1003980083120313860187018801890183160313D9
:1003A8000F088F3960388F000F14811281110108EE
:1003B800F839033881008B170B178B150B100800C1
:1003C80083160313051483160317081483120313E3
:1003D8001F179F13831603131F129F129F13831255
:1003E80003131F119F111F129F121F142130F400B5
:1003F800F40BFC2908003F340034063400345B3425
:1004080000344F340034663400346D3400347D34A5
:100418000034073400347F340034673400347E08F5
:100428008A007F0882000A128A1113220A128A118E
:100438008000840A04087D0603190034FF0A0319A2
:04044800FE0A172A67
:08400000FF3FFF3FFF3FFF3FC0
:04400E00D420FF3F7C
:00000001FF
